:1000000050A203200D6000002B8D02003D60000017
:100010003D6000003D6000003D6000000000000009
:10002000000000000000000000000000FD5C000077
:100030003D60000000000000795C0000178D0200A8
:10004000CD5F0000B79C0200CD5F0000CD5F0000D7
:10005000CD5F0000CD5F0000CD5F0000CD5F0000F0
:10006000CD5F0000CD5F0000CD5F0000CD5F0000E0
:10007000CD5F0000CD5F0000CD5F0000CD5F0000D0
:10008000CD5F0000CD5F0000CD5F0000CD5F0000C0
:10009000CD5F0000CD5F0000CD5F0000CD5F0000B0
:1000A000CD5F0000CD5F0000CD5F0000CD5F0000A0
:1000B000CD5F0000CD5F0000CD5F0000CD5F000090
:1000C000CD5F0000CD5F0000CD5F0000CD5F000080
:1000D000CD5F0000CD5F0000CD5F0000CD5F000070
:1000E000CD5F0000CD5F0000CD5F0000CD5F000060
:1000F000CD5F0000CD5F0000CD5F0000CD5F000050
:1001000001F0FF01102A2BDB10F0070F08D010F8C8
:10011000013B013A8B422DD010F0070F42B3F6D1CC
:10012000F0B441EA012141EA014122F007047FF0E5
:1001300000070023F0E80256083C85EA010586EA3C
:10014000010685FA47F5A3FA87F586FA47F6A5FA78
:1001500087F68EB9EED1F0BC01F0FF0102F0070284
:1001600032B110F8013B013A83EA010313B1F8D12F
:100170000020704701387047002D06BF3546033810
:10018000073815F0010F07D1013015F4807F02BF49
:10019000013015F4C03F0130F0BC0138704700BF9A
:1001A00081F0004102E000BF83F0004330B54FEA28
:1001B00041044FEA430594EA050F08BF90EA020F95
:1001C0001FBF54EA000C55EA020C7FEA645C7FEA28
:1001D000655C00F0E2804FEA5454D4EB5555B8BF4B
:1001E0006D420CDD2C4480EA020281EA030382EABC
:1001F000000083EA010180EA020281EA0303362D4E
:1002000088BF30BD11F0004F4FEA01314FF4801C20
:100210004CEA113102D0404261EB410113F0004F32
:100220004FEA03334CEA133302D0524263EB4303E9
:1002300094EA050F00F0A780A4F10104D5F1200E87
:100240000DDB02FA0EFC22FA05F2801841F10001E2
:1002500003FA0EF2801843FA05F359410EE0A5F1B6
:1002600020050EF1200E012A03FA0EFC28BF4CF0E7
:10027000020C43FA05F3C01851EBE37101F000459D
:1002800007D54FF0000EDCF1000C7EEB00006EEBAA
:100290000101B1F5801F1BD3B1F5001F0CD3490834
:1002A0005FEA30004FEA3C0C04F101044FEA44528B
:1002B00012F5800F80F09A80BCF1004F08BF5FEA12
:1002C000500C50F1000041EB045141EA050130BDF2
:1002D0005FEA4C0C404141EB0101013C28BFB1F504
:1002E000801FE9D291F0000F04BF01460020B1FA4F
:1002F00081F308BF2033A3F10B03B3F120020CDA22
:100300000C3208DD02F1140CC2F10C0201FA0CF0FF
:1003100021FA02F10CE002F11402D8BFC2F1200C64
:1003200001FA02F120FA0CFCDCBF41EA0C0190401A
:10033000E41AA2BF01EB0451294330BD6FEA040463
:100340001F3C1CDA0C340EDC04F11404C4F120024E
:1003500020FA04F001FA02F340EA030021FA04F360
:1003600045EA030130BDC4F10C04C4F1200220FAB7
:1003700002F001FA04F340EA0300294630BD21FAF5
:1003800004F0294630BD94F0000F83F4801306BFBB
:1003900081F480110134013D4EE77FEA645C18BFAF
:1003A0007FEA655C29D094EA050F08BF90EA020F46
:1003B00005D054EA000C04BF1946104630BD91EA3E
:1003C000030F1EBF0021002030BD5FEA545C05D141
:1003D0004000494128BF41F0004130BD14F5800480
:1003E0003CBF01F5801130BD01F0004545F0FE41F4
:1003F00041F470014FF0000030BD7FEA645C1ABF29
:10040000194610467FEA655C1CBF0B46024650EA5F
:10041000013406BF52EA033591EA030F41F400218B
:1004200030BD00BF90F0000F04BF0021704730B511
:100430004FF4806404F132044FF000054FF00001E6
:1004400050E700BF90F0000F04BF0021704730B5A7
:100450004FF4806404F1320410F0004548BF40427C
:100460004FF000013EE700BF42004FEAE2014FEAD1
:1004700031014FEA02701FBF12F07F4393F07F4FAC
:1004800081F06051704732F07F4208BF704793F0AF
:100490007F4F04BF41F40021704730B54FF46074C2
:1004A00001F0004521F000411CE700BF50EA0102C5
:1004B00008BF704730B54FF000050AE050EA01026E
:1004C00008BF704730B511F0004502D5404261EBDE
:1004D00041014FF4806404F132045FEA915C3FF41F
:1004E000D8AE4FF003025FEADC0C18BF03325FEABC
:1004F000DC0C18BF033202EBDC02C2F1200300FA6D
:1005000003FC20FA02F001FA03FE40EA0E0021FA91
:1005100002F11444BDE600BF70B54FF0FF0C4CF47F
:10052000E06C1CEA11541DBF1CEA135594EA0C0F31
:1005300095EA0C0F00F0DEF82C4481EA030621EA6C
:100540004C5123EA4C5350EA013518BF52EA0335A7
:1005500041F4801143F4801338D0A0FB02CE4FF059
:100560000005E1FB02E506F00042E0FB03E54FF089
:100570000006E1FB03569CF0000F18BF4EF0010E81
:10058000A4F1FF04B6F5007F64F5407404D25FEA7D
:100590004E0E6D4146EB060642EAC62141EA555130
:1005A0004FEAC52040EA5E504FEACE2EB4F1FD0C72
:1005B00088BFBCF5E06F1ED8BEF1004F08BF5FEAF0
:1005C000500E50F1000041EB045170BD06F00046A2
:1005D00046EA010140EA020081EA0301B4EB5C044F
:1005E000C2BFD4EB0C0541EA045170BD41F4801147
:1005F0004FF0000E013C00F3AB8014F1360FDEBF6C
:10060000002001F0004170BDC4F10004203C35DA47
:100610000C341BDC04F11404C4F1200500FA05F3CA
:1006200020FA04F001FA05F240EA020001F000426B
:1006300021F0004110EBD37021FA04F642EB0601E1
:100640005EEA430E08BF20EAD37070BDC4F10C040B
:10065000C4F1200500FA04F320FA05F001FA04F2CF
:1006600040EA020001F0004110EBD37041F10001BB
:100670005EEA430E08BF20EAD37070BDC4F12005C6
:1006800000FA05F24EEA020E20FA04F301FA05F22E
:1006900043EA020321FA04F001F0004121FA04F2D6
:1006A00020EA020000EBD3705EEA430E08BF20EAA6
:1006B000D37070BD94F0000F0FD101F000464000E0
:1006C00041EB010111F4801F08BF013CF7D041EA62
:1006D000060195F0000F18BF704703F00046520066
:1006E00043EB030313F4801F08BF013DF7D043EA37
:1006F0000603704794EA0C0F0CEA135518BF95EAED
:100700000C0F0CD050EA410618BF52EA4306D1D173
:1007100081EA030101F000414FF0000070BD50EA92
:10072000410606BF1046194652EA430619D094EA1C
:100730000C0F02D150EA013613D195EA0C0F05D106
:1007400052EA03361CBF104619460AD181EA03015A
:1007500001F0004141F0FE4141F470014FF0000012
:1007600070BD41F0FE4141F4780170BD70B54FF0AD
:10077000FF0C4CF4E06C1CEA11541DBF1CEA13552D
:1007800094EA0C0F95EA0C0F00F0A7F8A4EB05040F
:1007900081EA030E52EA03354FEA013100F0888006
:1007A0004FEA03334FF0805545EA131343EA1263CF
:1007B0004FEA022245EA111545EA10654FEA002684
:1007C0000EF000419D4208BF964244F1FD0404F53D
:1007D000407402D25B084FEA3202B61A65EB030599
:1007E0005B084FEA32024FF480104FF4002CB6EB56
:1007F000020E75EB030E22BFB61A754640EA0C00D6
:100800005B084FEA3202B6EB020E75EB030E22BF15
:10081000B61A754640EA5C005B084FEA3202B6EB56
:10082000020E75EB030E22BFB61A754640EA9C0015
:100830005B084FEA3202B6EB020E75EB030E22BFE5
:10084000B61A754640EADC0055EA060E18D04FEAA3
:10085000051545EA16754FEA06164FEAC30343EA43
:1008600052734FEAC2025FEA1C1CC0D111F4801F10
:100870000BD141EA00014FF000004FF0004CB6E709
:1008800011F4801F04BF01430020B4F1FD0C88BFA8
:10089000BCF5E06F3FF6AFAEB5EB030C04BFB6EBB3
:1008A000020C5FEA500C50F1000041EB045170BDA6
:1008B0000EF0004E4EEA113114EB5C04C2BFD4EBD3
:1008C0000C0541EA045170BD41F480114FF0000E57
:1008D000013C90E645EA060E8DE60CEA135594EAD3
:1008E0000C0F08BF95EA0C0F3FF43BAF94EA0C0FD6
:1008F0000AD150EA01347FF434AF95EA0C0F7FF44B
:1009000025AF104619462CE795EA0C0F06D152EA9E
:1009100003353FF4FDAE1046194622E750EA410682
:1009200018BF52EA43067FF4C5AE50EA41047FF493
:100930000DAF52EA43057FF4EBAE12E74FEA4102F6
:1009400012F5001215D211D56FF47873B3EB625221
:1009500012D94FEAC12343F0004343EA505311F048
:10096000004F23FA02F018BF404270474FF00000DA
:10097000704750EA013005D111F0004008BF6FF018
:10098000004070474FF00000704700BF4FEA41023F
:10099000B2F1E04324BFB3F5001CDCF1FE5C0DD9DD
:1009A00001F0004C4FEAC0024CEA5070B2F1004F27
:1009B00040EB830008BF20F00100704711F0804F2A
:1009C00021D113F13872BCBF01F00040704741F4EF
:1009D00080114FEA5252C2F11802C2F1200C10FAF3
:1009E0000CF320FA02F018BF40F001004FEAC123D7
:1009F0004FEAD32303FA0CFC40EA0C0023FA02F37B
:100A00004FEA4303CCE77FEA625307D150EA013350
:100A10001EBF4FF0FE4040F44000704701F0004020
:100A200040F0FE4040F40000704700BF53B94AB99F
:100A3000002908BF00281CBF4FF0FF314FF0FF30E6
:100A400000F0AAB9ADF1080C6DE904CE00F03CF855
:100A5000DDF804E0DDE9022304B0704738B5002278
:100A6000002304460D4600F0F9F928B9204629462E
:100A7000BDE8384000F00AB8204605F1004100F01A
:100A800005F8404261EB410138BD00BFD0B50C4BC9
:100A9000002206460F46FFF73FFD00F007FA044626
:100AA000FFF7C0FC074B0022FFF736FD02460B465E
:100AB00030463946FFF778FB00F0F8F92146D0BD03
:100AC0000000F03D0000F0412DE9F047089D04468C
:100AD0008E46002B4DD18A42944669D9B2FA82F2F1
:100AE00052B101FA02F3C2F1200120FA01F10CFA2D
:100AF00002FC41EA030E94404FEA1C48210CBEFB65
:100B0000F8F61FFA8CF708FB16E341EA034306FBED
:100B100007F199420AD91CEB030306F1FF3080F07C
:100B20001F81994240F21C81023E63445B1AA4B2C9
:100B3000B3FBF8F008FB103344EA034400FB07F76B
:100B4000A7420AD91CEB040400F1FF3380F00A81AC
:100B5000A74240F207816444023840EA0640E41BA1
:100B600000261DB1D4400023C5E900433146BDE84D
:100B7000F0878B4209D9002D00F0EF800026C5E9EF
:100B8000000130463146BDE8F087B3FA83F6002E07
:100B90004AD18B4202D3824200F2F980841A61EB7F
:100BA000030301209E46002DE0D0C5E9004EDDE79D
:100BB00002B9FFDEB2FA82F2002A40F09280A1EB85
:100BC0000C014FEA1C471FFA8CFE0126200CB1FBDA
:100BD000F7F307FB131140EA01410EFB03F08842D3
:100BE00008D91CEB010103F1FF3802D2884200F260
:100BF000CB804346091AA4B2B1FBF7F007FB1011F2
:100C000044EA01440EFB00FEA64508D91CEB04048F
:100C100000F1FF3102D2A64500F2BB800846A4EBEA
:100C20000E0440EA03409CE7C6F12007B34022FAD5
:100C300007FC4CEA030C20FA07F401FA06F31C4304
:100C4000F9404FEA1C4900FA06F3B1FBF9F8200C11
:100C50001FFA8CFE09FB181140EA014108FB0EF057
:100C6000884202FA06F20BD91CEB010108F1FF3AA7
:100C700080F08880884240F28580A8F102086144B3
:100C8000091AA4B2B1FBF9F009FB101144EA0141C1
:100C900000FB0EFE8E4508D91CEB010100F1FF346C
:100CA0006CD28E456AD90238614440EA0840A0FB04
:100CB0000294A1EB0E01A142C846A64656D353D0DA
:100CC0005DB1B3EB080261EB0E0101FA07F722FAFE
:100CD00006F3F1401F43C5E9007100263146BDE827
:100CE000F087C2F12003D8400CFA02FC21FA03F38A
:100CF000914001434FEA1C471FFA8CFEB3FBF7F00B
:100D000007FB10360B0C43EA064300FB0EF69E422F
:100D100004FA02F408D91CEB030300F1FF382FD2C8
:100D20009E422DD9023863449B1B89B2B3FBF7F670
:100D300007FB163341EA034106FB0EF38B4208D949
:100D40001CEB010106F1FF3816D28B4214D9023E8A
:100D50006144C91A46EA004638E72E46284605E7A8
:100D60000646E3E61846F8E64B45A9D2B9EB020879
:100D700064EB0C0E0138A3E74646EAE7204694E709
:100D80004046D1E7D0467BE7023B614432E730463C
:100D900009E76444023842E7704700BF4FF0FF3C68
:100DA00006E000BF4FF0010C02E000BF4FF0010C65
:100DB0004DF804CD4FEA410C7FEA6C5C4FEA430CDE
:100DC00018BF7FEA6C5C1BD001B050EA410C0CBF2D
:100DD00052EA430C91EA030F02BF90EA020F00208F
:100DE000704710F1000F91EA030F58BF994208BFF6
:100DF00090422CBFD8176FEAE37040F001007047B3
:100E00004FEA410C7FEA6C5C02D150EA013C07D109
:100E10004FEA430C7FEA6C5CD6D152EA033CD3D054
:100E20005DF8040B704700BF8446104662468C464E
:100E30001946634600E000BF01B5FFF7B7FF002881
:100E400048BF10F1000F01BD4DF808EDFFF7F4FFAA
:100E50000CBF012000205DF808FB00BF4DF808ED35
:100E6000FFF7EAFF34BF012000205DF808FB00BF58
:100E70004DF808EDFFF7E0FF94BF012000205DF87A
:100E800008FB00BF4DF808EDFFF7CEFF94BF01202F
:100E900000205DF808FB00BF4DF808EDFFF7C4FF28
:100EA00034BF012000205DF808FB00BF4A0011D2CA
:100EB00012F5001211D20DD56FF47873B3EB6252B4
:100EC0000ED44FEAC12343F0004343EA505323FAC0
:100ED00002F070474FF00000704750EA013002D135
:100EE0004FF0FF3070474FF00000704780B483B080
:100EF00000AF78607B6801339B0018460C37BD4615
:100F000080BC704780B582B000AF786039607A6885
:100F10003B689A4201D1012310E07B68002B02D08C
:100F20003B68002B01D1002308E03B6819683B684F
:100F300004331A46786800F005F803461846083767
:100F4000BD4680BD80B487B000AFF860B9607A60FC
:100F5000FB68002B06D1BB68002B0CBF01230023CC
:100F6000DBB220E0FB681B68BA689A4201D000231C
:100F700019E000237B6110E0FA687B699B00134451
:100F80005A687B699B0079680B441B689A4201D0C0
:100F9000002308E07B6901337B61FB681B687A6989
:100FA0009A42E9DB012318461C37BD4680BC7047D6
:100FB00080B584B000AF78607868FFF797FF03468C
:100FC000184625F083FC0346FB60FB687A681A60CC
:100FD000FB6818461037BD4680BD80B584B000AFB1
:100FE00078607B68002B01D1002313E07B681B68CD
:100FF0001846FFF7DDFFF860FB68002B09D0FB689F
:10100000181D7B68191D7B681B689B001A4637F00A
:1010100015FCFB6818461037BD4680BD80B582B010
:1010200000AF7860786825F059FC00BF0837BD46EE
:1010300080BD80B483B000AF78607B6801339B00D3
:1010400018460C37BD4680BC704780B584B000AFF1
:1010500078607868FFF7EDFF0346184625F036FC08
:101060000346FB60FB687A681A60FB681846103715
:10107000BD4680BD80B582B000AF7860786825F04D
:101080002DFC00BF0837BD4680BD80B582B000AFE3
:1010900078607B681B7D042B03D07B681B7D052B50
:1010A00004D17B685B68184625F018FC7B68002239
:1010B0005A6000BF0837BD4680BD80B584B000AF20
:1010C00078607B681B78012B1DD17B685B68FB60B7
:1010D000FB681B68002B07D0FB681B681846FFF7EE
:1010E000C9FFFB6800221A60FB685B68002B07D011
:1010F000FB685B681846FFF791FFFB6800225A60A7
:10110000F86825F0EBFB7B6800225A607B680022C0
:101110001A7000BF1037BD4680BD90B589B000AFD2
:1011200078607B68002B4BD07B681B68002B07D056
:101130007B681B681846FFF771FF7B6800221A6006
:101140007B685B68002B07D07B685B681846FFF7FD
:1011500065FF7B6800225A607B689B68002B2BD060
:101160000023FB611BE07B689A68FB691B01134449
:1011700007F10C040FCB84E80F003B7B012B0BD154
:101180007B691846FFF74AFF00237B61BB6918465D
:10119000FFF744FF0023BB61FB690133FB617B6800
:1011A000DB68FA699A42DEDB7B689B68184625F0AB
:1011B00095FB7B6800229A60786825F08FFB00E041
:1011C00000BF2437BD4690BD80B582B000AF7860C7
:1011D0007868FFF75AFF7B689B68002B04D07B6818
:1011E0009B681846FFF71AFF7B6800229A607B68AD
:1011F000DB6B002B04D07B68DB6B1846FFF70EFF20
:101200007B680022DA637B6830331846FFF755FFAE
:101210007B689B6B1846FFF780FF7B6800229A6310
:1012200000BF0837BD4680BD82B080B584B000AF36
:10123000B9607A60FB610346FB73B86BFFF7C4FFCC
:10124000BB6BFA7B1A70BB6BBA681A62BB6B7A68AD
:101250009A60BB6B0C3307F11C0292E8030083E831
:101260000300BB6B7A6A5A60BB6BBA6A9A61BB6B4C
:1012700097F82C201A75BB6B3A6BDA61BB6B97F849
:10128000342083F82D20BB6B002283F83020BB6B09
:1012900000225A6300BF1037BD46BDE8804002B04F
:1012A000704780B582B000AF786039603B681B7DC5
:1012B000042B03D03B681B7D052B1DD13B685B686D
:1012C000002B07D1786825F001FB03461A463B68DE
:1012D0005A600DE03B689B697A689A4208D93B687E
:1012E0005B687968184625F0FDFD02463B685A6048
:1012F0003B687A689A6100E000BF0837BD4680BD50
:1013000080B483B000AF0346FB71FB790B2B33D85D
:1013100001A252F823F000BF491300004D13000052
:101320005513000059130000611300006D130000F5
:101330006513000051130000691300005D130000E5
:1013400071130000751300000E4B16E00E4B14E0F5
:101350000E4B12E00E4B10E00E4B0EE00E4B0CE06D
:101360000E4B0AE00E4B08E00E4B06E00E4B04E07D
:101370000E4B02E00E4B00E00E4B18460C37BD46FC
:1013800080BC704780910300889103009091030016
:1013900098910300A0910300A8910300B09103006D
:1013A000B8910300C0910300CC910300D4910300D5
:1013B000DC910300E4910300B0B58AB000AF78601F
:1013C00007F1080320220021184637F045FA7B6810
:1013D0001D4607F108040FCC0FC594E80F0085E8FF
:1013E0000F0078682837BD46B0BD00BF10F8012B4C
:1013F00011F8013B012A28BF9A42F7D0D01A704752
:10140000034613F8012B002AFBD1181A0138704744
:101410002DE9F04F2DED048BC5B07B4D7B4CDFF8F3
:10142000448200AF02F0B6F8002602F033F802F072
:1014300077F802F04BF902F041FB75492E6007F195
:101440006C0037F0E0FA7349266007F1480037F086
:10145000DAFA6F4E98F800309BB16F4E6D4D3378CD
:10146000FBB90A2026F0D5F92368322101FB03518C
:1014700007F1480037F0C7FA07F1480002F0C2F858
:10148000EDE70A2026F0C5F92B68322101FB036144
:1014900007F16C0037F0B7FA07F16C0002F0B2F810
:1014A000D8E7002006F0ACF9014610B15B4826F001
:1014B00044FA5B4826F041FA5A4826F03EFA9FED7E
:1014C000508B594802F09EF80023BB6104F0A0FB4A
:1014D000564B186002F04EFA554AB72352F80419D9
:1014E000C2F8BC10013BF9D25249534806F060FDE6
:1014F0000146A8B1514826F020FA012002F03AF83E
:10150000012002F03FF84E480CF01CFD4D4826F03B
:1015100014FA07F58A77BD46BDEC048BBDE8F08F61
:1015200040F6B83026F075F906F008FE786310B181
:1015300001464548DFE704F06BFB444C3B4B216818
:1015400058604348434DDFF81881DFF81C9126F0BE
:10155000F4F97E6BD8F80030B34206DD29464846E0
:1015600026F0EBF901360A35F4E73B48DFF8FC805A
:10157000DFF8FCB026F0E1F90026384BC246B14650
:101580002268B2421CDC0026344BB2461E22DBF835
:101590000010B1426EDD00252168A9422CDD02FB5E
:1015A000058118463B63FFF721FF3B6B1E2218B3F2
:1015B00021680139A94208BF0AF1010A0135EBE7A8
:1015C00000251E22DBF80010A94211DD02FB0531C7
:1015D0005046FFF70BFF214B50B1DBF800100139EB
:1015E000A9424FF01E0208BF09F101090135E9E7E0
:1015F00001360AF11E0AC3E701361E33C7E700BFF2
:10160000000000000000000034E80220E457002041
:1016100081670500B96C050060360320FA65050096
:101620001A6605003166050040660500A8570020CF
:10163000EC56002051340000CC5305004C660500E8
:1016400000010020626705006F660500B8570020A2
:1016500092660500AF530320876E050052170320E2
:1016600030E8022062360320AB66050063360320B3
:101670002CE802209A4BD4F80080C3F80890C3E904
:10168000008A984A00239C46194618464FF0C80E17
:1016900055684DB11468A445B8BFA446A645284472
:1016A00004FB0511A8BFA64601331E2B02F1080258
:1016B000EED108B191FBF0F100228B4D1646134696
:1016C0001446D5F80490B9F1000F05D0D5F800A064
:1016D0004C440AFB0933564401321E2A05F1080521
:1016E000EFD10BB193FBF4F3804D7D4A2D68D560AB
:1016F0007F4DDFF800922D68C2E90A63C2E9061E39
:101700006FF06303C2E908C4C2E904503B620025DC
:101710007B608C23AB467D623D60BD62BD60FD6237
:10172000FD603D63FB61A84540F38580B0EE489ABB
:10173000F0EE689A00266FF06303CA467E61344675
:101740003B61DAF8000000284ED13B6B23443B6339
:10175000FB69A34269DCFB68A342B8BF2346FB6078
:10176000D7E904329B1ABA6A1A44BA6264B32046B3
:10177000FEF768FE0B46024651EC190BFEF7F6FF2A
:10178000FFF7DCF8FB6A0344FB623B6A8342B8BFA5
:1017900003463B623B688342A8BF0346012C3B6083
:1017A00012D0013C8C227B6A96FBF4F602FB0544C6
:1017B000504A334402EBC4047B62D9F804306268B7
:1017C000ABEB030303EB020BBB687A699342A8BF40
:1017D0001346BB603A697B689342B8BF13467B608F
:1017E000013509F58C699EE77B698342A8BF0346F2
:1017F0007B613B698342B8BF03463B61FEF722FE33
:1018000002460B4651EC190BFEF7D0FC41EC190BCC
:101810002CB1DAF8043033445AF8046C9E1B0134BE
:101820008C2C0AF1080A8CD195E7FB69002C18BFB3
:101830002346FB618FE7B8F1000F11D03B6B93FBA0
:10184000F8F33B63FB6A93FBF8F3FB62BB6A93FB21
:10185000F8F3BB627B6A93FBF8F37B629BFBF8FBBC
:101860001F4C3B6B2363FB696363FB68A363FB6AE9
:10187000E3633B6823643B6A6364BB68A3647B687F
:10188000E364BB6A23657B6A1B4EDFF860A0C4E992
:10189000153BDFF870B05C34B1464FF000081749D3
:1018A0000025DAF80020AA422FDD48463963FFF709
:1018B0009DFD396B0023002840F0C481104B5D442E
:1018C0001A68172103469A421EDD01FB03FC15F836
:1018D0000CC0BCF1000F00D001300133F3E700BFB2
:1018E0001054002064EB022038E8022030E8022087
:1018F000BC570020EC570020D36B0500AF530320EA
:10190000B8570020E6280320206008F10108B8F14C
:10191000170F04F1040409F10A09C0D104F078F9A1
:10192000BA69CF4B042A986040F38581CD4CCE48EC
:10193000DFF8AC93214602F07FF994ED017ADFEDF8
:10194000CB7AD4F8008067EE277A322417EE900A1B
:1019500023F06EFC07EE900AFDEEE77A17EE905A40
:1019600004F056F9BE4BC249D860D9F8003007F1EF
:10197000800004FB031137F046F8BE4B1968BE4BDC
:1019800007F1940004FB013137F03DF8D9F800204D
:10199000BA4807F1800125F0D0FFB94BB94804FBE4
:1019A000083442462B46214625F0C7FFB64907F1C9
:1019B000A80037F028F807F1800107F1A80037F0F8
:1019C00013F8B24907F1A80037F00EF807F19401B7
:1019D00007F1A80037F008F8AD4907F1A80037F083
:1019E00003F8AC4907F1A80036F0FEFF214607F1E5
:1019F000A80036F0F9FF2A46A74907F1540025F060
:101A0000A3FA07F1540107F1A80036F0EDFF07F142
:101A1000A80001F0F7FDA14907F18000FFF7E6FCFF
:101A2000002800F00881214607F18000E846FFF712
:101A3000DDFC002840F00F8101F09CFD012001F049
:101A4000A1FD97499748DFF894A2DFF8589236F045
:101A5000DAFF9549934836F0C7FF002551464846BE
:101A600036F0C2FF01353146484636F0BDFF172D2E
:101A700006F10A06F2D18D498A48DFF8EC918C4EC6
:101A8000884D36F0B1FF8B49864836F0ADFF8A4964
:101A9000844836F0A9FF8949824836F0A5FF81487D
:101AA00007F1800136F0A0FF796B7B6B2E2293FB50
:101AB000F2F302FB1313FBB9F1B14FF0010A684BCB
:101AC00053F82A201B683146D21A07F1DC0025F0B2
:101AD0003BFA0AF1010A07F1DC01284636F084FFDF
:101AE000BAF1040FEBD17549284636F07DFF07F1B6
:101AF0008001284636F078FF59F8042B314607F16B
:101B0000DC0025F021FA07F1DC01284636F06CFFF5
:101B10007B6B0133E62B7B63C6D101F09BFE684BE8
:101B200007F1DC00196836F06EFF664B07F1DC0048
:101B3000196836F059FF644907F1DC0036F054FFAC
:101B400007F1940107F1DC0036F04EFF5E4907F122
:101B5000DC0036F049FF97F880205C4907F13C0033
:101B600025F0F2F997F88120584907F1400025F057
:101B7000EBF907F18000FFF743FC07F58873184481
:101B8000524910F8912C07F1440025F0DDF907F1D6
:101B90003C0107F1DC0036F027FF07F1400107F1B7
:101BA000DC0036F021FF4A4907F1DC0036F01CFF6B
:101BB00007F1440107F1DC0036F016FF454907F153
:101BC000DC0036F011FF444807F1DC0125F0B5FEDA
:101BD00007F1DC0107F1600001F026FE2046FFF767
:101BE0000FFC0B3020F00700ADEB000D21466846DE
:101BF00036F009FF07F15401684636F0F5FE374923
:101C0000684636F0F1FE0222002107F160000BF079
:101C1000D1FD6846FFF7F4FB6946024607F1600014
:101C20000BF0A6FD07F160000BF02AFE07F1600043
:101C30000BF058FDC546BB690133372BBB617FF400
:101C400045AC5AE4DAF80020013AAA4208BF236002
:101C500001350A3125E6012001F08CFC0020EEE67A
:101C6000A857002028E90220105400200000C84294
:101C700081670500E4570020B96C0500B0660500D7
:101C80002C610500D2660500066705003775050062
:101C90006CBA05000A6705001067050016670500A5
:101CA000886E0500F74703203D6A05001E670500A2
:101CB0004B6705002D6705003C670500876E050032
:101CC000280100202C010020A2650500B765050051
:101CD000B99905005067050055670500AD66050018
:101CE00034E80220000000002DE9F04F2DED028BBA
:101CF0009FEDAB8B9BB081468A4615461C4600265D
:101D0000287810B9304600F0CBBD6B1C2528029313
:101D100006D05146C8470028C0F2C28501362EE2DF
:101D2000182200210CA836F097FD6B78252B59D08E
:101D30006A1C174612F8013B2B2B00F08B8079D8D8
:101D4000202B00F08C80232B00F08E809DF8383003
:101D500003F04402442A03D16FF386138DF8383020
:101D60009DF838300A9743F080038DF838303B787F
:101D70002A2B7ED19DF8393043F001038DF839309C
:101D80007B1C0A931A782E2A9DF839200CBF01215A
:101D9000002161F341028DF839200BD15A1C0A92BF
:101DA0005A782A2A7BD19DF8392042F004028DF816
:101DB00039200233194611F8010B6C2800F0CF804E
:101DC0007DD8682800F084806A2800F0D2804C28F2
:101DD00000F0D6809DF839206FF3C6028DF83920C7
:101DE000194680E0AA1C02928DF83B309DF83930EC
:101DF000DF0740F1788154F804BBBBF1000F07DA2C
:101E00009DF8382042F004028DF83820CBF1000B09
:101E1000580740F1718154F8048BB8F1000F80F23B
:101E200070819DF839306FF341038DF839304FF0F0
:101E3000FF3866E12D2B06D0302B87D19DF8383046
:101E400043F0400303E09DF8383043F004038DF87D
:101E500038306EE79DF8383043F00803F7E79DF817
:101E6000383043F01003F2E79DF8383043F0200398
:101E7000EDE70AA802F020F80A9BBB4281D09DF84A
:101E800038700F90C7F3400141EAD072520062F0FF
:101E90007F0207F07D010A438DF8382071E70AA818
:101EA00002F00AF89DF838301090C3F3400242EA7D
:101EB000D07060F341038DF838300A9B7AE77428BC
:101EC0009DF8392059D07A2884D11346062241E062
:101ED0005A78682A9DF839203AD1012161F3C60267
:101EE0008DF83920991C0B4613F8012B0293782AA0
:101EF0008DF83B2000F2CD80572A55D8412A04D0D6
:101F0000A2F14503022B00F2C4809DF83A3004216F
:101F100061F302038DF83A3002F0DF03A3F14108C8
:101F20009DF83920D8F1000343EB080363F3C7128F
:101F30008DF83920D3B2120600F1D38003F0780275
:101F4000182A40F0A3806FF3C6038DF839308AE079
:101F50001346022262F3C6038DF83930C3E75A787C
:101F60006C2A9DF8392001D10421B7E713460322DA
:101F7000F0E79DF839300522ECE713460722E9E740
:101F8000BDF8383023F4F04323F0020343F48043D8
:101F900043F00203ADF83830A5E700BFAFF300808F
:101FA0000000000000000008A2F15803202B70D8A8
:101FB00001A151F823F000BF6B2000009320000026
:101FC0009320000093200000932000009320000045
:101FD0009320000093200000932000000B1F0000BE
:101FE000932000006B2000003D2000000B1F00002C
:101FF0000B1F00000B1F0000932000003D2000007D
:102000009320000093200000932000009320000004
:10201000A12000006B200000C520000093200000DC
:1020200093200000C5200000932000006B200000DA
:1020300093200000932000006B2000009DF83A30B0
:10204000012161F302038DF83A309DF8393003F035
:102050007803402B02BF9DF8381041F001018DF844
:102060003810632A05D0002306E09DF83A3002219B
:10207000E7E7003B18BF01239DF83820C2F3400179
:102080000B4363F341028DF83820AFE613F0380FAD
:10209000E9D09DF8383043F001038DF83830E2E79D
:1020A0009DF83A30032262F302038DF83A309DF82E
:1020B000393003F07803A3F1400CDCF1000343EB6B
:1020C0000C03D9E79DF83A30032262F302038DF83E
:1020D0003A309DF8393013F0780F14BF01230023F4
:1020E000CAE70123C8E79DF93820002AB4BFDDF80C
:1020F0003CB04FF0FF3B8BE699077FF598AEDDF8DB
:1021000040809DF839100023CDE90F339DF83A3017
:1021100003F00702042A09D18A0707D49DF9392060
:10212000002AB4BF4FF00D084FF0060803F0070374
:10213000012BC1F3C30137D1CB1E042B21D8DFE81B
:1021400003F003090920200054F8043BDA17CDE915
:102150000C3206E0073424F00704F4E80223CDE94A
:102160000C239DF83870BB0756D0029B2A46514677
:10217000484625F092FF0028C0F292830644029D53
:10218000BEE554F8043B01294FEAE372CDE90C3275
:1021900005D19DF830300C9300230D93E1E702291F
:1021A000DFD1BDF93030D1E7022B23D1CB1E042B78
:1021B00013D8DFE803F0030A0A12120020680C901B
:1021C0000022231D0D921C46CBE7E31D23F00703DD
:1021D000B3EC027B8DED0C7BF5E754F8043B0C93DC
:1021E00001294FF000030D93D3D00229B9D1BDF8D6
:1021F0003030D0E7042B09D1E31D23F0070303F1AE
:102200000804D3E90023CDE90C23AAE7032B04BF7C
:1022100054F8043B0C93A4E79DF83B20782AAED8F1
:10222000572A00F28C80252A00F0D480242AA6D9CF
:10223000412A03D0A2F14503022BA0D8DDE90C13FB
:10224000002BC0F2B781380700F1B68117F01007F4
:1022500018BF2027C3F30A55C3F31303CDE90813AE
:10226000002D40F0AB8151EA030014BF0120002093
:10227000DB0243EA5153C902462A45EA010E43EA0A
:10228000E57C08BF66225EEA0C0CCDE9081300F07D
:102290000382002840F0CB81DDE908014FF0000CFB
:1022A00041F00041A5F2FE35099163464FF0050E5D
:1022B00015F1020FC0F2C281BCF1000F01D0CDE9CF
:1022C0000801002DDDE9080100F3CD810998089986
:1022D000C5F1040C1C3500FA05F5ACF1200E21FA0D
:1022E0000CF120FA0EFE294341EA0E0120FA0CF00F
:1022F000CDE9081002F0DF01472940F0D481DD1C50
:1023000002DB984580F2CB81023AB8F1000FD2B2DD
:1023100001DD08F1FF389DF83810880600F1C3810F
:10232000B8F1000FD4BF00210121662A039140F0CB
:10233000BC8113EB080140F1BA810021BAE1A2F19E
:102340005803202B3FF61BAF01A050F823F000BF2D
:10235000572500007F2100007F2100007F21000021
:102360007F2100007F2100007F2100007F210000ED
:102370007F2100003D2200007F2100000124000099
:10238000F72400003D2200003D2200003D22000015
:102390007F210000F72400007F2100007F21000042
:1023A0007F2100007F2100008D25000057250000BF
:1023B0005B2500007F2100007F210000DB2300005F
:1023C0007F210000572500007F2100007F210000B1
:1023D00057250000514610469CE4B8F1000F0C9AB6
:1023E00009DB41461046039236F03CFB039A002776
:1023F000151862B9C3E610460392FFF701F8F5E736
:102400000C9B8DF84C3000270DF14D0513AAAB1A2B
:1024100007B101339DF83A00C10640F1358202331D
:102420000F9940060B4444BF10995B18BBF1000F95
:1024300023DDABEB030B9DF838305907C3F380085D
:102440001BD4580640F13682002F00F036825146E8
:1024500038460392C8470028C0F22282039A4746B2
:1024600001364FF030085E445B46002BA6EB0B00B4
:102470000BF1FF3B00F30C82064647B1514638464C
:102480000392C8470028C0F20B82039A01369DF8D8
:102490003A30590640F165829DF93930002BA6EBA0
:1024A000020680F219821746B846F31917F8010B95
:1024B000702840F00582109F1E461F44BB1B002B56
:1024C00000F348822B4642465146484625F0E5FD3A
:1024D0000028C0F2E581304406468344ABEB060396
:1024E000002B7FF74CAE51462020C8470028C0F291
:1024F000D7810136F2E73D072BD417F0100718BF3C
:102500002027DDE90C23002B05DA524263EB43035D
:10251000CDE90C232D270DF1650300930EAADDE90B
:102520000C0113AB01F0DEFC0246B8F1000F0DF117
:102530006505FFF65EAF9DF83810AB1A6FF3861194
:1025400098458DF838107FF654AFA8EB03030F932E
:102550004FE72B27D5E70027DDE70C98002800F090
:102560008F810DF1650300930EAA13AB002101F0DA
:10257000B9FCBDF83A3003F0EF0343F4F04343F005
:1025800010030246ADF83A300027CEE70C9B07292E
:102590003FF6F5ADDFE801F00C04060C08080C0C62
:1025A0001E70ECE51E80EAE5F217C3E90062E6E57D
:1025B0001E60E4E52D274DE62B274BE640F2FF7029
:1025C000854231D10132B948D2B20B43125C02F0DC
:1025D00003021BD1012A11D149238DF84C304E231F
:1025E0008DF84D3046238DF84E309DF838306FF31E
:1025F00086138DF838300DF14F0507E769238DF804
:102600004C306E238DF84D306623ECE7012A07BF6E
:102610004E2341226E2361220CBF8DF84C308DF881
:102620004C308DF84D20DEE7002021E6013D4918B1
:102630005B41002BFADACDE908132DE6400840EAA9
:10264000C1704908B1F1333FAC4605F10105F5D23F
:102650000EFB01F5A0FB0E012944013B0CF1020524
:102660004FF0010C24E6023041F10001CDE90801F0
:1026700008A8CDE9032325F0E1FC049B039ADDE9DA
:102680000810013D013349184041002805F1FF358C
:10269000F9DACDE9081014E600231D4616E6A8EB8A
:1026A0000308662237E600213FE608F10101102900
:1026B000A8BF10218DED0A8B102007900D46DDE993
:1026C0000A01A5B9089D4019099D41EB0501B1F129
:1026D000805F1BD2CDE90801662A40F09980002B6B
:1026E00023DC30218DF84C100DF14D052FE0400812
:1026F00040EAC1704908CDE90A010AA8CDE90423DE
:10270000013D25F09BFCDDE90423D8E7400840EAC1
:10271000C1704908CDE9080108A8CDE9042325F0D6
:102720008DFC059B049A0133D6E713AD0799002968
:102730000BDD07A908A8CDE9042325F097FC059B2C
:1027400005F8010B013B049AF0D10F9300239DF88B
:102750003810890602D4B8F1000F1DDD2E2105F8CE
:10276000011B9BB1B8F1000F16DD59424145A8BFCE
:1027700041469DF83A000F910029A8EB0108D4BF0B
:102780000021012161F345108DF83A00B8F1000FE6
:1027900002DD0799002956DC0399002963D1CDF8A1
:1027A000408002F0DF01452921D1002B2946B8BF26
:1027B0005B4201F8022BB4BF2D222B22632B6A70DF
:1027C00009DD642093FBF0F202F1300CE91C85F87E
:1027D00002C000FB12330A200D4693FBF0F200FB0F
:1027E000123302F1300C303305F802CB4B700F9BE3
:1027F000002B43DC109B002BD4BF002301239DF84A
:102800003A2063F3861200238DF83A202B70FDE501
:1028100007A908A8CDE9042325F028FCDDE9042355
:102820009DF838108DF84C00302818BF03F1FF33A5
:10283000880602D4B8F1000F12DD2E218DF84D105C
:102840000DF14E05A2E707A908A8CDE9042325F05C
:102850000DFC08F1FF38DDE9042305F8010B95E7CD
:102860000DF14D0598E700211091284615F8011D3E
:102870003029FAD02E2918BF054692E70123BEE77A
:102880000B4D07466A1FC2E5010748BF0133C7E584
:10289000514640460392C8470028039ABFF6E4AD6C
:1028A0001BB0BDEC028BBDE8F08F00BFB9CA0500BC
:1028B000206E05004FF02008D5E54FF03008D2E536
:1028C0005146C8470028BFF6EFADE9E751460392ED
:1028D000C8470028039AE3DB1078374BC35C5B07DB
:1028E000174606EB020802F10102EFD49DF83A30D8
:1028F0000F9E990607D4B044002EA8EB060206F1FD
:10290000FF360FDC904638782E2808D15146C8474C
:102910000028C5DB002E08F1010809DC0137A8EB0F
:1029200007060EE051463020C8470028E4DAB7E732
:1029300051463020C847013EEAE75146C8470028C3
:10294000AEDB1D4AB846F31917F8010B125C5207AB
:10295000F3D4B0E551463020C8470028A0DB01364B
:10296000ACE5D80601D4190707D5514630200392AB
:10297000C847002894DB039A01369DF83A30DB06FD
:1029800008D59DF83B0003925146C847002887DBD5
:10299000039A01360F9F3744BB1B002B01DC2B46EB
:1029A00092E5514630200392C8470028FFF678AFE1
:1029B000039A0136F0E700BFBACA05000000000024
:1029C0002DE9F0478CB020B90CB0BDE8F04707F016
:1029D000FFBE6B4C94F83E5015F0010504D00C2559
:1029E00028460CB0BDE8F08794F8253094F8200014
:1029F00004EB830380099E6A94F8313004EB83036F
:102A00005F6BFF2384F8213008F08EF994F83E00C4
:102A100042070DD52A4604F13F01C0F3C00008F07B
:102A2000FBFAFF2884F8210002D0284608F0C0F9FC
:102A300056B15348314627F05AF833785B0679D4BB
:102A40004F48394627F053F894F820300121C3F35A
:102A500002030DF12B008DF82B3026F015FD002818
:102A6000BDD0327802F00F02022A00F1FF3168D1A6
:102A700072781032D20000FB02F303F5AA736420CF
:102A800001FB00313F48E46100263123C4E90236EE
:102A9000A1FB000138A3D3E90023C4E90566267031
:102AA0006660FDF7C3FFB4F83C80206126F05FFF4D
:102AB0002369354A03F2471111600992334A3449B8
:102AC000CDE90642334A4FF0910CCDE90432074676
:102AD0004FF6FF73A8FB0101CDE902634FF0020A34
:102AE00025A3D3E900230DF12C090CFB0811CDF827
:102AF0002CA0CDF82090FDF799FF0321CDE90060CF
:102B00003B465246304606F095F8494607F000FB32
:102B100000287FF464AF94F83E3043F0010384F85A
:102B20003E3007F04BFF00287FF45AAF012008F039
:102B3000DBF855E7062126F07BFC002880D1122522
:102B40004EE7012A14D07B781033DB0052B970783D
:102B500003F527731030C200983303EBC00302F56E
:102B60009A708DE7062AF2D010204FF4AA73F2E78C
:102B700016204FF42D73EEE78D49FD1A0700000073
:102B8000800E032000CA9A3BC80E0320459D00001A
:102B9000002AE784E9A400002DE9F04F044690F8EC
:102BA000300094F82030444EC0F3400060F38613A8
:102BB0008DB084F8203004F1230106F019F9678DF7
:102BC00094F82030E4610025A7FB06014FF0910C3A
:102BD00003F079030CFB0711C4E9055584F8203094
:102BE000257033A3D3E90023FDF720FF3123C4E987
:102BF0000235E36A65600933A0F13102934228BFD0
:102C0000E5622E4D34BF236122610746651B26F025
:102C1000AEFE3423B5FBF3F5294BCDE906430DF1A8
:102C20002C0B284BCDF820B00593236904934FF06B
:102C3000000ACDF80CA0B4F82AC0B1468046912114
:102C4000ACFB090901FB0C9119A3D3E9002302266F
:102C50000B96FDF7EBFE104619464FF47A720023EF
:102C6000FDF7E4FE0435EDB22A46CDE90170434696
:102C70000321CDF800A0504626F046FE594607F045
:102C800047FA054680B994F8303043F0010384F8E0
:102C9000303007F08FFD044640B9304608F024F884
:102CA00020460DB0BDE8F08F0C20FAE72846F8E783
:102CB0008D49FD1A07000000002AE784EC0E03206E
:102CC000459D0000E1A80000F8B504460020164626
:102CD0001F4607F081FE054620B390F8303041854D
:102CE00067F3420380F830309DF818306401DB0050
:102CF00003F0180304F020041C4390F8203023F064
:102D000038031C4380F8204009489124A6FB0001A9
:102D100005A3D3E9002304FB0611FDF787FEE86253
:102D20000020F8BD0C20FCE78D49FD1A07000000CB
:102D3000002AE784000000002DE9F0472DED028B0A
:102D40009FED478B484E84B004464FF02003EFF3CD
:102D5000118783F31188BFF36F8FD4F8C8508DB9F2
:102D6000022104F1E0002DF073FF002835D100238B
:102D70008DED008B029304F1D00239463B4814F0EC
:102D800009FCE2E7D4F8CC202B68C4F8C83095429F
:102D900001D1C4F8CC30D4F8E03043F00203C4F8D9
:102DA000E030EB6823F0040343F00103EB606B6851
:102DB00087F31188BFF36F8F284698474FF02003A1
:102DC000EFF3118883F31188BFF36F8FEB689907D6
:102DD00023F001020BD4EA600EE004F1D8050022D2
:102DE000012128462EF0D5F80028F8D1BFE7306839
:102DF00023F00303EB6070B9D4F8E03023F0020352
:102E0000C4F8E03088F31188BFF36F8FD8059CD4E5
:102E100014F0B6FA99E70027D0F80090BA46436854
:102E20009D4202460BD102688FB9736832608342BB
:102E300000D1726040F808AB13F048FF3A46B9F190
:102E4000000FD9D048461746D9F80090E7E77368D5
:102E50003A60834208BF7760ECE700BFAFF30080C1
:102E6000FFFFFFFFFFFFFFFF241703200977032069
:102E70002DE9F0472DED028B90F8653086B00546C0
:102E800053B13149C06835F03AFB0124204606B001
:102E9000BDEC028BBDE8F08790F86430002B3ED08B
:102EA0009FED278B00264FF0280AB146A86E2EF022
:102EB0002FFB03689E423FD22C680AFB0644676AD8
:102EC000FB68002B36D0384615F07CFED5F84480E0
:102ED0000146CDE90489B8F1000F0AD0D8F80030D6
:102EE0008DED028BCDE9006902229B684046984730
:102EF00005902146FB6805F110009847012804461B
:102F000013D1384615F05EFE104900940246334650
:102F1000E86835F0F4FA04A82EF050FBB6E715F097
:102F20008DFE04460028BBD0B0E70028F3D104A8EA
:102F30002EF044FB0136B9E70024A7E7AFF3008089
:102F400000000000000000001FAF05004CAF0500AE
:102F50002DE9F7430F460A9906464FF00040C84056
:102F6000CDE90023FDF76EFADDE9002304460D46A6
:102F700030463946FDF7D0FA02460B462046294630
:102F8000FDF7CAFA0AA3D3E90023DDE90B89044659
:102F90000D46FDF781FF10B105A5D5E900454B466B
:102FA00042462046294603B0BDE8F04321F052BE18
:102FB0000000C0FFFFFFDF412DE9F74F0446C8685E
:102FC00015461E468A46FDF74FFA8046E868894650
:102FD000FDF74AFA02460B4640464946FDF79CFA81
:102FE000DDE90C7B80468946D6B1F068FDF73CFAF6
:102FF00002460B4640464946FDF7D6F88046F8683B
:1030000021F00049FDF730FA02460B46404649469A
:10301000FDF7ACFB11A3D3E90023FDF729FF50B165
:103020003B462A4651462046CDF830B003B0BDE8B5
:10303000F04F21F049BE064B009320466569054AD2
:1030400005499A23A847012003B0BDE8F08F00BFCF
:10305000C3C9050083C905002AA905007B14AE4732
:10306000E17A943F00000000C1F30A5CF8B5ACF2CD
:10307000FF35132D02460B460C4606462FDC002D6D
:103080001DDB354F2F4101EA070C5CEA000C2BD009
:103090002FA3D3E90023FDF789F800220023FDF7D1
:1030A000FBFE48B1002C04DA4FF4801343FA05F517
:1030B0002C4424EA0704002621463046F8BD24A308
:1030C000D3E90023FDF772F800220023FDF7E4FEA8
:1030D0000028F1D0002C25DB00263446ECE7332D08
:1030E00005DDB5F5806F1AD010461946F8BDACF273
:1030F000134C4FF0FF3727FA0CF70742F4D014A314
:10310000D3E90023FDF752F800220023FDF7C4FEA7
:103110000028D1D0002C0EDB26EA0706CCE7FDF70D
:1031200045F8F8BD24F000430C4A1E43002E18BF9A
:1031300014460026C0E7142D08D00123C5F134053C
:1031400003FA05F5AE1928BFE418E5E70134E3E713
:103150009C7500883CE4377EFFFF0F000000F0BF45
:10316000094B197831B9094A13680C2B09DC013372
:1031700013607047064B197821B9064A1368012B72
:10318000F4E71160704700BF6236032034E8022084
:1031900060360320E4570020054B1A7812B901224B
:1031A0001A7003E0034B1A78002AF8D0704700BF6A
:1031B00062360320603603200A4B1B7843B90A4A63
:1031C0001368002B01DD013B00E00D231360704705
:1031D000064B1B78002BFAD1054A1368002BF2DC52
:1031E0000223F3E76236032034E80220603603202E
:1031F000E457002070B503788AB004460E4607AD48
:10320000032B20D8DFE803F002191B1D11492846C3
:1032100035F0F9FB63780493A3780393E378029382
:1032200023790193637900930B4AA37905951E21B5
:10323000304624F08FFB0AB070BD0849E7E7084923
:10324000E5E70849E3E7084A0A21284624F082FB1B
:10325000E0E700BF4C6405006E64050053640500A0
:103260005A6405006464050039790500F8B5094D14
:10327000094F064600243B68A34207DD2846314635
:10328000FEF7B4F81E3518B10134F4E74FF0FF34FF
:103290002046F8BD63360320B85700202DE9F043DF
:1032A0000746A5B0084603A9FFF7A4FF3B780A2B01
:1032B00016D004D8023B012B30D9012025E0FF2B8A
:1032C000FBD1444A7C7800231146D2E90050A54244
:1032D0000FD0A0B101331E2B02F10802F5D1ECE7AB
:1032E0007B683D4A1C7811460023D2E90050A54274
:1032F00004D101EBC30301305860DEE740B901EBB4
:10330000C3020120506041F8334025B0BDE8F0838E
:1033100001331E2B02F10802E7D1CEE77D7815F0CC
:10332000010503D02D4824F008FBC6E7DFF8BC8078
:103330007B78AB42C1DD7968294E022229440DF128
:10334000060035F07BFA0024BDF80630ADF80840E1
:1033500064220BA902A8ADF80A3003F0AFFBD8F83D
:103360000030A34234DB0BA93046B146FEF73EF8ED
:10337000A8B903A8FFF77AFF1A4D172606FB0050DD
:10338000035D53B903A8FFF771FF06FB0050164A0F
:10339000012303551368013313600020B5E7D8F803
:1033A0000030A34206F10A0610D10BA9484635F0B9
:1033B0002AFBD8F8003003A80133C8F80030FFF723
:1033C00055FF084B172202FB0030E0E70134C6E747
:1033D0000235ADE738E8022064EB02209164050075
:1033E000AF530320E6280320BC57002030E802201A
:1033F00010B5074C074B226801461E2000FB023027
:1034000035F001FB2368952BDCBF0133236010BD31
:10341000B85700206336032038B50C4D4FF48C624A
:1034200002FB0152002352F8334054B98C2404FBB0
:10343000013445F8340002F0EBFB05EBC40358609F
:1034400038BD01338C2BEED1FAE700BFEC570020DA
:1034500070B588B00C4669461D460646FFF7CAFEA1
:103460006846FFF703FF431C014606D16846FFF795
:10347000BFFF6846FFF7FAFE01462046FFF7CCFF84
:1034800003493246284604F091FC08B070BD00BFE5
:103490009D32000010B51748174C24F0B3F91548B9
:1034A00024F06AF91549164B4B6020464FF08063B3
:1034B0008B6024F077F9134824F0A4F9114824F024
:1034C0005BF91149114B4B60204680238B6024F03F
:1034D00069F90F4824F096F90D4824F04DF90D498B
:1034E0000D4B4B60BDE810404FF480730B488B6070
:1034F00024F058B9E0530500340C0020C0570020D8
:1035000061310000E8530500CC57002099310000DC
:10351000F0530500D8570020B93100004C0C0020B2
:1035200038B5114C114D204613F05CF82860204648
:1035300013F058F80E4C4FF4D05220600F21286839
:1035400024F046F920684FF4D0520A2124F040F9C3
:10355000286800220F2124F02BF920680022BDE802
:1035600038400A2124F024B99F64050080EC022031
:1035700084EC0220024B02460F21186824F018B98F
:1035800080EC0220024B02460A21186824F010B990
:1035900084EC022037B51548154C13F023F8206051
:1035A00028B9144803B0BDE8304024F0C6B910F083
:1035B000F9FC0DF0CDF9002112F01CFE0E4D0F4963
:1035C00028602DF0A5F800231A46194600932868B4
:1035D00028F0DCFB11F016F8206883685B689847D8
:1035E000074B01221A7003B030BD00BFA66405006E
:1035F0007CEC0220AE64050030E90220886E0500F4
:103600006136032013B50B4C0146206880B10A4B8C
:103610001B786BB12DF07CF80023206800931A46CC
:10362000194628F0B3FB02B0BDE8104010F0EABF25
:1036300002B010BD30E902206136032030B585B0FC
:1036400001460023019002A8CDE902330AF03AF9BD
:103650000199044660B90D4D0C4902A80AF0A8F979
:1036600078B96B786BB12B78012BF5D00134F3E787
:103670000246074824F061F94FF0FF34204605B0B8
:1036800030BD02A80AF016FAF8E700BF68EC022085
:10369000C164050013B50023044601466846CDE920
:1036A00000330AF00FF930B120460AF029FA064833
:1036B000214624F042F968460AF0FCF92046FFF75B
:1036C000BDFF02B010BD00BFDC64050070B5454809
:1036D000B4B025F082F800285AD0434824F02DF9E0
:1036E000424D43482B68C3600AF072FB0446002831
:1036F00071D14048404E24F020F92968684635F0E1
:1037000082F93E4B6846196835F06EF929683C4DE0
:103710000DA835F078F93B4B0DA8196835F064F920
:103720006846FFF7B7FF69460246374824F005F9B7
:103730000DA8FFF7AFFF0DA90246334824F0FDF8AE
:103740000DA91AA835F05FF931461AA835F04CF9E1
:1037500029461AA835F048F91AA8FFF79BFF6946D1
:1037600027A835F050F9314627A835F03DF929460C
:1037700027A835F039F9013427A8FFF78BFF032C70
:1037800005F13205DCD1214B01221A7034B070BD35
:1037900014481AAA012125F06AF808B11C489DE7CF
:1037A0001A991C4824F0C9F80E4827AA022125F0CE
:1037B0005EF808B1184891E72799184824F0BDF839
:1037C0001A99279B1648A1FB0313090D41EA0331FF
:1037D00024F0B3F884E7134834B0BDE8704024F017
:1037E000ACB800BFED640500F064050028010020BE
:1037F000000100206C650500A26505002401002081
:10380000B96C05002C0100207B6505009554032050
:10381000046505001F6505002E6505004865050067
:10382000586505008C650500002238B5C0E9002206
:10383000826013220D4609F0F1FE041E06DAA31C75
:1038400004D003482246294624F077F8204638BDA4
:10385000A46505002DE9F041384FDFF81481384D9B
:10386000B8B0D8F80010374C322606FB017108A812
:1038700035F0C9F89DF82020294603A823F064FB01
:103880009DF82120294604A823F05EFB23682E49D9
:10389000009303AA04AB0DA823F056FB2B4B12A8F0
:1038A000196835F0B0F82A4B12A8196835F09CF861
:1038B000284912A835F098F8274B1968274B12A809
:1038C00006FB013135F090F80DA912A835F08CF8FF
:1038D000234812A924F031F812A905A823F0A9FF62
:1038E000023027D112A905A8FFF79EFF002211463A
:1038F00005A809F05FFF12A91FA835F084F8194840
:10390000194CFDF77DFD1749024605A809F030FF67
:1039100005A809F0B5FF05A809F0E4FE21461FA897
:103920000AF008FA22691148611C24F006F838B040
:10393000BDE8F08123680133236092E781670500C9
:10394000B7650500E8570020BA650500280100208A
:1039500024010020A2650500E4570020B96C050091
:10396000C6650500F747032054EC0220DA65050020
:1039700034E802202DE9F843DFF8D4802A4F2B4C9D
:103980002B4EDFF8D09000253368AB4222DD4FF498
:103990008C63002203FB0593114601328C2AC3E994
:1039A000001103F10803F8D12146384635F02BF811
:1039B0002049204635F027F80023424619460133B6
:1039C000172B02F8011BFAD1013508F117081E3731
:1039D0001E34D9E7184D174F0024284639460134C4
:1039E00035F011F8172C05F10A05F6D10023134A1A
:1039F000194601331E2BC2E9001102F10802F8D169
:103A000000220F49134601321E2AC1E9003301F199
:103A10000801F8D10B4A316811600B4A336013601A
:103A20000A4A1360BDE8F883521703206336032067
:103A3000B8570020886E0500AF53032064EB0220C6
:103A400038E802202CE8022030E80220BC57002091
:103A5000E6280320EC5700202DE9F043DFF858C09A
:103A6000144E99464FEA810E00248C421FDABCECBA
:103A7000017AB5EE407AF1EE10FA15D0A5000027D4
:103A8000974211DA4359D6ED006A07EE903AF8EE04
:103A9000E77A09EB050877EEE67A0137C7EE876A21
:103AA0007544C8ED006AEBE701340436DDE7BDE894
:103AB000F08300BF5C52050014530500F0B5484C7C
:103AC0002378BFF35B8FDA0787B00BD4204634F03E
:103AD0007CFE38B1204634F084FE424A42494348D5
:103AE00025F02AF9424D414B2B60424B424E1A6859
:103AF000D118D3583160CB1A1A88042A0FD99A8862
:103B000012B18A58032A0CD03C493848032334F0B8
:103B1000F6FC3B4807B0BDE8F04023F00EBF0022A2
:103B2000F2E7384C2378BFF35B8FDB070ED42046D7
:103B300034F04BFE50B1344814F028F8204634F0ED
:103B400050FE284A3149304825F0F6F8304F3B788E
:103B5000BFF35B8F13F0010417D1384634F035FE04
:103B600098B102942B68019341F69023264A31685C
:103B700000932848284B2DF047FD384634F031FE9D
:103B8000184A2649234825F0D7F8254C21482060BB
:103B900015F054F8014628B12249286834F0AFFCEA
:103BA0002148B7E705902068204D15F0DFF805990A
:103BB0002860206815F0BEF81D4B18602B689B68C4
:103BC0009A6823680592186E2DF0ACFC059A03469E
:103BD0001848E62107B0BDE8F04023F0AEBE00BFB4
:103BE0008CEC0220BC03032053780200300100203B
:103BF00030F002202092030038F002204F6D0500C3
:103C0000966D050090EC0220B8F002205578020075
:103C100088EC022040F0022096540320D1150300C6
:103C20002CF00220AB6D0500C46D050034F00220BD
:103C30003CF00220DE6D050038B50522194B0C461C
:103C40002E21FFF709FF184B164A1B685B6803F526
:103C5000667152F8040B43F8040B8B42F9D1134BF5
:103C60001868FFF705F9124BDFED127A1868124B4E
:103C70004FF0FF311D68002398420EDD6A6802EBA9
:103C8000830292ED007AF4EEC77AF1EE10FA44BFA7
:103C90001946F0EE477A0133EEE72160C4ED017A70
:103CA00038BD00BF94EC022034F002202CF002203A
:103CB00058520500000000003CF00220014B186043
:103CC000704700BF3401002030B585B0CDE9010157
:103CD0000446002501A905480395FEF705F8DDE92E
:103CE00002309842B8BF255405B030BD15790200A6
:103CF0002DE9F74FB0F81C9019F0080804469346D8
:103D00000ED001290CBF49F0100949F02009A0F894
:103D10001C908BF31188BFF36F8F03B0BDE8F08F59
:103D2000DFF890A109F00709022907D1204623F006
:103D30001EFE0028EDD00128A38B4BD1A769A18BD3
:103D4000002F15DA256821F00701C4E9008841F049
:103D50000101A1830026A18B01F007024A4502D090
:103D6000A368002B57D10DB9002E6FD0002353E06C
:103D700001F007035A1F012A1DD821F00701062B65
:103D8000256889B2C4E900880AD13DB1E38B2A468F
:103D9000126801339BB2002AFAD1E38341F0020199
:103DA000A183204623F0E3FD0028D3D0A38B43F06A
:103DB0002003A383CEE7042B0AD121F0070189B2A7
:103DC000A183204623F0D3FD10B141F02001A1834F
:103DD0000025BFE7032809D1226923F007031668ED
:103DE00043F00603A38300252F46B4E7042806D139
:103DF000226923F00703566843F00403F2E705281D
:103E000006D1226923F00703966843F00503E9E72A
:103E100000252E46E8E7012341F00801A1838BF33A
:103E20001188BFF36F8F03BB002D31D116B15146FE
:103E30002046B0474FF02003EFF3118B83F3118836
:103E4000BFF36F8FA38B23F00803A383A38BDA0642
:103E500027D523F01003A3830121B4F81C9009F0A7
:103E6000070900297FF460AF53E7A1680029DBD080
:103E7000D1F80090D1F804B001923B462046D847D3
:103E8000019AB9F1000FCFD04946D9F80090F1E777
:103E900029463B46204601922D6823F084FD019A75
:103EA000C2E713F020011EBF23F02003A3830221E9
:103EB000D3E700BFD3790200F0B5094E016802468E
:103EC0000A2700200C46013123789D5D6D0701D43F
:103ED0001460F0BD07FB0033A3F13000F2E700BF30
:103EE000BACA05002DE9F84F15469A46D378224AFA
:103EF00013F802B06F2B80460F460BF0030B29D04E
:103F000024D8582B14BF0A261026DDF828903246F4
:103F1000002340463946FCF789FD092AD4B21ED851
:103F20003034B045E4B277F1000309F8014D01D314
:103F3000D14511D82B789B0605D5082E15D1AB7825
:103F400043F00803AB704846BDE8F88F03F0F70371
:103F5000702BD7E70826D8E780460F46D7E7BBF196
:103F6000010F0CBF37345734DBE7102EEBD1AB78A1
:103F700043F01003E6E700BFBACA050030B51049A8
:103F8000104889B000222DF09AF80F4D0F490022F9
:103F90000023CDE9062300240E23CDE90334CDE927
:103FA00001440B4B00944FF44072284612F004FD7C
:103FB000084928462CF058FD204609B030BD00BF06
:103FC000D93F0000000E0020380E0020107703209B
:103FD000A9430000216E0500014812F077BE00BF22
:103FE000300D0020F0B505460F4E00200346024676
:103FF000012715F8014B0CB18B4200D3F0BD252CE5
:1040000002D182F00102F4E7002AF2D014F806C0CF
:104010001CF0030FEDD0732C04BF07FA03F210431A
:1040200001330022E5E700BFBACA050010B50B4B0B
:1040300000221A700A4B0B4A1A604FF4004000F03D
:10404000C7FC00F075FA084824F041F8BDE81040BC
:1040500006490748082348222CF0BBBC276F0320E1
:10406000380100200D8102005403032090CB03206F
:104070005C03032010B54FF02003EFF3118483F3AA
:104080001188BFF36F8F044824F031F884F311884E
:10409000BFF36F8F10BD00BF54030320064BBFF367
:1040A0005B8F53E8002F013243E800210029F8D14B
:1040B000BFF35B8F704700BF4C0303200020064B0B
:1040C000BFF35B8F024653E8000F43E8002100294D
:1040D000F9D1BFF35B8F70474C030320F8B5FFF7AE
:1040E000EDFF0A4C0A4D2D1B07462D110026AE424E
:1040F00000DBF8BD63685B792BB123681B6913B1E2
:1041000039462046984701361034F0E7D89003002E
:10411000E8900300044A054B9B1AB1EBD30F34BF60
:1041200052F8310000207047988F0300D8900300A8
:10413000094A4368801A10B50011084C1960013013
:10414000012218715A71237813B9054812F0BEFD87
:104150000123237010BD00BFD8900300266F0320F9
:10416000300D002070B5124BBFF35B8F53E8005F3A
:104170006A1C43E800210029F8D1BFF35B8F2DB9F9
:104180000C4C0D4E361B3611B54200DB70BD237B47
:1041900053B123689B690BB120469847636804229A
:1041A00019682046FFF7C4FF01351034ECE700BF63
:1041B00050030320D8900300E8900300174B984267
:1041C00073B5044602D3164B984221D315480022FA
:1041D000002301A912F092FB0546E0B90122019BE0
:1041E000BFF35B8F53E8001F43E800200028F9D19C
:1041F000BFF35B8F019E331D41221846214634F0E8
:104200001EFC7E22034686F8452086F846501C4652
:10421000204602B070BD044BF9E700BF608D03007B
:10422000F0CB05005C030320296E050050B1064B5E
:10423000984206D303F5107398422CBF002001204A
:1042400070470020704700BF90CB03202DE9F04F4E
:10425000474B1B7885B0044603B900B3FFF70AFF4C
:10426000054678B1BFF35B8F424B53E8002F013A0C
:1042700043E800210029F8D1BFF35B8F9CB12846A9
:1042800024F04EF82CB93C4B1B68002B01DDFFF7E6
:1042900025FF3A4823F029FF041E18BF01242046B9
:1042A00005B0BDE8F08F364B1B78E3B92B7ADB07FE
:1042B00019D424F048F80746284624F00FF80146A0
:1042C0003846FFF78FFEDFF8D8802E4BDFF8D4B0EA
:1042D000A3EB0803DB0803932B4BA3EB0803064671
:1042E0004FEAD30A36B9294E294FBF1B3F114FF071
:1042F00000083AE0B6FA86F1C1F11F09494628469E
:1043000023F0EFFF234B9842014602D3224A90420A
:104310001AD30846FFF78AFF0246A8B91F4B9942F5
:1043200012D06B890399C3F389138B4238BF58F8B5
:1043300033204FEA8A1343F00103ADF800304946B9
:104340003B46584623F025FF012303FA09F126EAEC
:104350000106C7E773685B7923B1336829465B6858
:104360003046984708F101081036B845F2DB86E779
:10437000266F0320480303204C030320540303202B
:10438000276F0320D890030080900300D89003008B
:10439000E8900300608D0300F0CB0500296E050056
:1043A000988F0300436E050010B5FFF7DBFE13F096
:1043B00089F80C4B186030B10B4B1B68092B02DDE0
:1043C0000A4812F083FC094C0020FFF73FFF002849
:1043D000FAD14FF0FF324FF0FF33204612F09CFC31
:1043E000F2E700BF7C03032048030320300D0020C8
:1043F000294B37B51B68418104469847E0604FF070
:104400002003EFF3118583F31188BFF36F8F2348E7
:10441000214623F060FE85F31188BFF36F8FBFF351
:104420005B8F1F4B53E8002F013243E80021002926
:10443000F8D1BFF35B8F1B4A127882B14FF0200393
:10444000EFF3118483F31188BFF36F8F0020FFF720
:10445000FDFE84F31188BFF36F8F03B030BD124AA5
:104460001B681268002AF8D0012B0AD10022002311
:10447000CDE900230D484FF40042002313F018FA51
:10448000EBE70A2BE9D109482CF025FE084803B0D8
:10449000BDE8304012F01ABC38010020540303205C
:1044A00048030320276F03207C030320000E002015
:1044B000300D0020F8B50E4F3D7875B90D4C0E4EFD
:1044C000FFF750FE361B3611B54207DB0020FFF721
:1044D000BDFE0028FAD101233B70F8BD63685B790B
:1044E0001BB1236820465B69984701351034EBE720
:1044F000276F0320D8900300E890030007B5043825
:104500000190BFF35B8F50E8003F5A1E40E8002146
:104510000029F8D1BFF35B8F012B03D1034801A918
:104520002CF073FA03B05DF804FB00BF5C030320BA
:104530002023024902481A462CF04BBAD0CD032062
:104540008003032037B50023094D01930120FFF7B5
:104550007DFE0446FFF7A2FD0022002301A92846A4
:1045600012F0CCF908B1002CF0D1019803B030BDA5
:104570008003032007B5002301930748002200238E
:1045800001A912F0BBF910B1FFF7DCFF019001980F
:1045900003B05DF804FB00BF80030320F0B5037A8D
:1045A00085B0DC0701901ED4457A2D091BD000246C
:1045B00026460198314623F094FE0746FFF736FE63
:1045C00070B134B9019B29461869FFF70BFD044609
:1045D00048B124FA06F3D90702D53846FFF78EFF13
:1045E0000136AE42E5D3019B1A7A920704D55B6986
:1045F000084C0393039B2BB9064801A92CF005FA3C
:1046000005B0F0BD1D6803A920462CF0FEF9039506
:10461000F0E700BF800303200EB403B503AB0146EF
:1046200053F8042B04480193FDF75EFB02B05DF8DC
:1046300004EB03B0704700BFA18702002DE9F047EB
:104640001D46089B1746DA0604460E4605D4990611
:104650004CBF2B492B49FFF7DFFFDFF8B0904FF03D
:104660000008A8452DDBDFF8A880DFF8A890DFF868
:104670009CA00025BD4232D2725D49462046FFF71C
:10468000CBFF0135102D23D11F49DFF88080DFF8E3
:104690008890DFF888A02046FFF7BEFF0025AF42D4
:1046A00029D9725D12F8093013F0970F08BF2E2236
:1046B00051462046FFF7B0FF0135102D14D1BDE85B
:1046C000F08749462046FFF7A7FF08F10108C8E731
:1046D0006A07CFD151462046FFF79EFFCAE7414601
:1046E0002046FFF799FFCCE76B07D8D1414620461B
:1046F000FFF792FFD3E741462046FFF78DFFDBE748
:10470000876E0500866E05008F6E05008CA705007C
:104710006A8C0500896E0500BACA0500B7650500F8
:104720002DE9F04F87B011F002069DF84080BDF9E9
:1047300048900592074601F0010A01F0080507D0EC
:1047400011F0440F39D134491A46FFF765FF064688
:10475000BAF1000F0AD0314B314953F82820314BC0
:104760003846002A08BF1A46FFF756FF3DB12E4BC8
:104770002E4953F828203846FFF74EFF0546B9F179
:10478000000F16DB059B002B43D0012303FA08F82A
:10479000274B284C18F0100F18BF1C4649469DF8AF
:1047A0004400FFF7B7FC214602463846FFF734FFC6
:1047B0000544A81907B0BDE8F08F1F4A116831B34E
:1047C0001E4A4FF461661468B3FBF4F34FF47A7B2E
:1047D000B3FBF1F4B4FBF6F206FB124601FB143412
:1047E0000BFB04F44FF03C0CB4FBF1FEB6FBFCF306
:1047F00001FB1E440CFB13660BFB04F40096B4FB98
:10480000F1F1CDE901E10E49FFF706FF9FE7084608
:104810009DE7084CC2E700BF9B6E0500F8530500FA
:104820004A7B0500916E05000C540500C06E050022
:10483000A1B10500966E0500A0030320A403032088
:10484000A46E050038B50C46E107054603D5084AB5
:104850000849FFF7E1FEE20608D4A30628464CBF4C
:1048600005490649BDE83840FFF7D6BE38BD00BF50
:10487000916E05004A7B0500876E0500866E050077
:104880002DE9F0478B7A13F007088AB005460E46EB
:10489000174622D00A7A4989C3F3C203C1F38911AA
:1048A000D243CDE900830291F36802F00102394658
:1048B000FFF736FF8146347AE44314F001040ED04A
:1048C0002946304623F002FEB8F1000F2BD04246B5
:1048D00039462846FFF7B6FF25E0C146EBE7B8F1B9
:1048E000000F26D12746EB68069306AA3B46A96827
:1048F000304623F0D7FD069A6B681A603AB1AB6870
:10490000134413F8014CA4F10A035C425C412846AD
:1049100023F039FF069B1F44002BE4D11CB114493E
:104920002846FFF779FE28460AB0BDE8F04723F095
:104930002ABF304623F007FD0E4902462846FFF7FE
:104940006BFE4FF0100A05AA234606A93046CDF8A3
:1049500014A023F0A7FD059A002AB8D04B46009773
:1049600006A92846FFF76AFE059B1C44EBE700BF3B
:10497000C66E05004A7B050073B542F20F738B4289
:1049800028BF0B4605680F4A04460521684622F0F9
:10499000E1FF63680C495B6806460B22284623F05A
:1049A00088FD63683246694628465B6823F081FDCE
:1049B000636806495B681B22284623F07AFD02B033
:1049C00070BD00BF4D670500006F0500E46E050077
:1049D000084A10B50123084C13600021A04204D8F6
:1049E00001B11360054B186010BD40085B00012148
:1049F000F4E700BFA403032040420F00A0030320FC
:104A0000014B01221A707047386F0320024B034894
:104A100001221A7023F0B7BE396F03203C54050001
:104A20000148FFF7A9BF00BF3C54050010B5084678
:104A30000C4623F046FC054821460F22FFF720FFD5
:104A40002046BDE8104023F06BBC00BF3C5405007D
:104A5000054B1B781BB141F288302CF0FEBAA42024
:104A6000002112F015BD00BF396F03202DE9F0477A
:104A7000DFF89090DFF890A080460F46042499F864
:104A80000050CDB94FF0FF334FF0FF32504612F0D7
:104A900031F83A464146284611F0FEFC064650469B
:104AA00012F0A0F8164DFEB101232B7099F80030DA
:104AB0006BB93846BDE8F0873A464146002011F010
:104AC000EBFC0646EEE75CB92C704FF0FF3400209B
:104AD00011F05EFD0028ECD02B78002BF3D1E8E735
:104AE000013CFFF7B5FFF2E72B7813B1013C04D18D
:104AF0002C702B78002BC2D1DBE7FFF7A9FFF8E77A
:104B0000386F0320396F03201C0D002038B5044C8A
:104B1000044DAC4200D338BD54F8043B9847F8E745
:104B2000988F0300988F030038B5054C256804EB77
:104B3000850405B938BD54F80439013D9847F8E7B4
:104B4000908F030008B504482BF0A4FF034B00200E
:104B5000C3E9003308BD00BFC8030320C00303201E
:104B6000F8B50646FCF74CFC0546124F12484FF0CC
:104B7000FF324FF0FF3311F0BDFF3C68BC420ED155
:104B800000240D4812F02EF82046F8BDA068FCF76E
:104B900037FCA84206D07B689C42F1D02468002CE8
:104BA000F4D1EDE7A1682A46304633F034FF0028FF
:104BB000F1D1E6E7C0030320C803032038B505465A
:104BC00017484FF0FF324FF0FF3311F093FF0DB154
:104BD000A86880B91349144B1448C91AC908890137
:104BE00041F0010123F096FA6FF015040C4811F022
:104BF000F9FF204638BDFFF7B3FF044640B109492D
:104C0000094B0B48C91AC908890141F00101E9E7BC
:104C1000084B5A68C5E9003215605D60E6E700BFE1
:104C2000C803032060900300988F03001C6F0500E9
:104C3000356F0500C0030320F8B505464FF020038B
:104C4000EFF3118683F31188BFF36F8F094B1C6854
:104C50005CB1094FD4E90132002D08BF13460BB1F6
:104C6000387898472468002CF4D186F31188BFF374
:104C70006F8FF8BDDC030320E4030320084B10B55D
:104C80001C685CB901221A60064B93E8070024F007
:104C90009EFA2046BDE81040FFF7CEBF10BD00BF12
:104CA0003C010020E4030320F0B585B06E460146C8
:104CB0000546304623F0F0FD96E80700144C84E8E2
:104CC00007002078274600B3124B002119606B1CA7
:104CD0000DD0114816464FF4004C104A0023E6FB55
:104CE0000C01FBF7A3FE0121281A2CF095F912F014
:104CF00051F90120FFF7A0FF97E8070024F054FACC
:104D0000FFF7BCFF12F0FEF9207805B0F0BD00BF40
:104D1000E40303203C0100203F420F0040420F000B
:104D200008B50448FEF7CAFF024801F07DFC0020E8
:104D300008BD00BF394D00002DE9F341DFF8608068
:104D4000164E8DF80700044603254FF0FF334FF051
:104D5000FF32404611F0CEFE01220DF10701002086
:104D600011F0E6FB0746404611F03CFF2FB101234E
:104D70003370204602B0BDE8F0813378002BF8D0C4
:104D8000013D08D02BF06AFE0028DED10021422030
:104D900012F07EFBD9E73570EBE700BF3A6F0320D6
:104DA0001C0D002038B503690B481D690C46297C91
:104DB00023F08BFD48B9611E04290AD8DFE801F011
:104DC000030609060500EB68136038BD4FF4007355
:104DD000FAE76FF01500F8E705700500002806DB1C
:104DE000012803D00146024823F06FBD0020704720
:104DF0004D70050000B50B4B89B0CDE9003205922E
:104E0000012304AACDE90331CDE90623D0E900014D
:104E100006AB02AACDF808D023F063FD09B05DF817
:104E200004FB00BF0D70050038B50446056907484E
:104E300011F0D8FB23692860626805485A60012197
:104E400019740461FFF7BAFE002038BD646F0500D5
:104E50004001002070B505460E4623F059FD04467A
:104E600068B9284623F0CEFD192E044604D805491A
:104E700021FA06F6F30702D4284623F06BFD2046FC
:104E800070BD00BF000606032DE9F04788B0054657
:104E9000884616464FF4FA71002206A823F09DFDBD
:104EA000284623F057FDFF28044615D106A823F015
:104EB0006FFD0028F4D1274B274A2848D21AD20880
:104EC0009201214642F0020223F033F96FF073049D
:104ED000204608B0BDE8F0870028F9DBFE2836D16F
:104EE000DFF87CA000274FF00109F31B402B28BFFF
:104EF000402308EB0702CDE90423CDE900A304AB6E
:104F0000CDE90639D5E9000106AB02AACDF808D0F3
:104F1000CDF80C9023F0E5FC04460028D8D14037AA
:104F2000BE42E2DC032206A92846FFF763FF0446DF
:104F30000028CDD1BDF818503246414622F097FCEA
:104F40006DBAADB2A84218BF6FF08904C0E76FF028
:104F50000404BDE7988F0300B89003006A6F050052
:104F60000D70050008B5FFF775FFBDE80840014664
:104F7000014823F0AABC00BF4D700500F0B50769D9
:104F80008E4C3D697B686B6093B001222A7441F2BC
:104F90008831142202A823F020FD0A222146284647
:104FA00023F0A6FCD5E9000123F0DFFC0022114626
:104FB0002846FFF74FFFFFF711FF40BB08AB082162
:104FC0004FF4D572284623F035FDFFF707FF06465C
:104FD00050B9089BDAB2AA2A16D103F47063B3F56C
:104FE000807F18BF6FF085063B2101222846FFF71E
:104FF00031FFFFF7F3FE044688B1D5E9000123F045
:10500000B4FC204613B0F0BD6FF00106ECE702A837
:1050100023F0BEFC0028C0D16FF00104EDE7002EA4
:105020000CBF4FF080440024002237212846FFF7B0
:1050300011FF224629212846FFF794FF002800F09F
:10504000B78002A823F0A4FC0028EDD16FF0730410
:10505000D3E702A823F09CFC78B101AB3A210022EF
:10506000284623F0E7FC0146304623F02EFC044698
:105070000028C2D1019B002BEBDA019B5B000AD414
:1050800000232B724FF4007210212846FFF76AFFAD
:10509000044610B1B1E701232B72002209212846F2
:1050A000FFF760FF04460028A7D110220DEB020194
:1050B0002846FFF7E9FE044600289ED19DF81030EF
:1050C0009B0904D0012B66D06FF0850495E79DF80D
:1050D000152002F00F02A2F10903022BF4D80DF102
:1050E000160023F0DEFBBDF819305BBAC0F38B303D
:1050F000C3F3C213073A013013449840304B314E8A
:10510000E860F61AF608E9682F48B60146F003068B
:105110003246C90A23F00DF800220A212846FFF77B
:1051200021FF044600287FF468AF10220DEB020136
:105130002846FFF7A9FE044600287FF45EAF9DF8DD
:10514000103008939DF8113009939DF812300A939E
:105150009DF813300B939DF814300C939DF8153087
:105160000D939DF816300E939DF817300F930DF1A7
:1051700019009DF81830109323F093FB33461190DB
:105180000A22124808A923F023F87B683A690C33F5
:105190001474536031E70DF1160023F082FB41F2E5
:1051A0000F03C0F3150098428ED901308002A5E7A5
:1051B0000190002E7FF464AF054E4EE70D700500A0
:1051C000988F0300B8900300886F0500A36F050057
:1051D0004D700500F8B505460F46017C16481E4681
:1051E00023F073FB044660B92B7A03B952021221F3
:1051F0002846FFF7B7FE044688B1D5E9000123F041
:10520000B4FB2046F8BD4FF4007239462846FFF73C
:105210003BFE04460028F0D107F50077013E002E42
:10522000F1D132460C212846FFF79CFE284623F098
:1052300020FC0446E1E700BF057005002DE9F74FAB
:1052400005460F46017C3D481646984623F03DFB37
:1052500060B9DFF8EC90DFF8ECA09044464508D147
:105260000024D5E9000123F080FB204603B0BDE80F
:10527000F08F2B7A002B5CD1720218212846FFF7A1
:1052800071FE041EEDDBFE23012201A928468DF8E4
:10529000043023F02DFB04460028E2D14FF40072C5
:1052A0003946284623F024FB04460028D9D14FF480
:1052B0000072394622F0DBFA0222030A8DF805005B
:1052C00001A928468DF8043023F012FB044600287B
:1052D000C7D1284623F03EFB0146484623F0F5FAA5
:1052E00004460028BDD1284623F0C3FB044600280D
:1052F000B7D102460D21284623F00AFB04460028B8
:10530000AFD1284623F07EFB0146504623F0DDFA5C
:105310008346284623F01EFB0446284623F01AFB4A
:10532000BBF1000F07DB002C9BD107F5007701369E
:1053300094E73246A1E75C4693E700BF057005009D
:10534000FD6F05004D7005002DE9F74305460F463A
:10535000017C2F481E4623F0B8FA0446D0B92B7AB8
:1053600003B9520219212846FFF7FCFD041E0DDB8C
:10537000DFF8A0904FF0FC0886B932460C21284691
:1053800023F0C6FA284623F074FB0446D5E9000151
:1053900023F0EBFA204603B0BDE8F083012201A917
:1053A00028468DF8048023F0A3FA04460028EDD1A6
:1053B0004FF400723946284623F09AFA0446002832
:1053C000E4D14FF40072394622F051FA0222030A66
:1053D0008DF8050001A928468DF8043023F088FADD
:1053E00004460028D2D1284623F0B4FA01464846A4
:1053F00023F06BFA04460028C8D1284623F039FB75
:1054000004460028C2D107F50077013EB4E700BF8B
:1054100005700500FD6F050070B50D460649411A7F
:10542000044649110548402223F0BAFB2B460146A9
:105430002046BDE8704018471C040320D40B002010
:1054400037B50C460A490B4A411A402300934911CB
:1054500005462346084823F0D0FB011E05DA2846FE
:10546000234603B0BDE83040184703B030BD00BF4D
:105470001C040320678C0200D40B0020002270B5AE
:1054800001210446104600F07BFC002000F046FCA1
:105490000F480AF093FD0F4B984215D126F01EFAE3
:1054A00026690D49304622F0B2FA00280BDB246948
:1054B00009490125B56404F1200022F0A8FA00286A
:1054C00001DB6565002070BD6FF00400FBE700BFE5
:1054D000195500000000AD0BB054050073B50C2346
:1054E00001460B484B43C418D4E9105200264833F8
:1054F00026641844019223F040FB35B1019A054817
:105500002B4602B0BDE87040184702B070BD00BF26
:105510001C040320D40B002010B1012804D07047D4
:10552000034B9B6C5B0701D1FFF7D8BF704700BFEF
:105530001C04032008B54FF02003EFF3118183F31F
:105540001188BFF36F8F124A136843F0020013F003
:10555000010310600CD04FF08042D2F80C34D2F826
:105560000C2413F0010303D00A4823F006FB0123A7
:1055700081F31188BFF36F8F23B1BDE8084000208D
:10558000FFF7ACBFBDE80840012026F0B1B900BF6D
:1055900074040320640403207FB500220123CDE9B5
:1055A000022304ABCDE90433094ACDF800D06B46A1
:1055B000CDF804D023F050FB002805DB4FF48042E7
:1055C0000023684611F0A8FB07B05DF804FB00BF9C
:1055D0007F8C0200094BBFF35B8F53E8002F22F052
:1055E000020143E800100028F7D1BFF35B8FD30717
:1055F00002D401200AF0F2BC704700BF74040320FB
:10560000024BC0B203EB4010704700BF1C040320E4
:10561000094BBFF35B8F53E8002F42F0010143E8D1
:1056200000100028F7D1BFF35B8F930702D401204D
:1056300026F05EB9704700BF74040320094BBFF326
:105640005B8F53E8002F22F0010143E8001000288F
:10565000F7D1BFF35B8F930702D401200AF0BEBCE1
:10566000704700BF740403202DE9F0413949BFF3AE
:105670005B8F0746012251E8003F41E800200028E7
:10568000F9D1BFF35B8F33B9334934484B60CB60FA
:105690008A6022F0CFF97B1E012B2FD8012F07D172
:1056A0004FF08043D3F81C3403F00303012B25D0C3
:1056B0002BF0D4F9044618B9294B1B78002B41D1A3
:1056C0004FF02003EFF3118683F31188BFF36F8F40
:1056D0000124DFF890804FF08045D5F81834D5F8D4
:1056E0001824D2030CD503F00303012B01D0012FA2
:1056F00006D10CB386F31188BFF36F8FBDE8F0813C
:10570000ACB1304600F0B2FBD5F81835002BE4D12F
:10571000D5F80421002AE0D0C5F80431D5F80431C9
:105720000123C5F81835C8F88031AB60D5E70021F2
:10573000212011F0ADFEE7E74FF080430222C3F8CD
:105740000423DBE74FF080430222C3F80823064618
:10575000BFE700BF780403200C0403203C040320AF
:105760000677032000E100E008B50649064B07482C
:10577000C91AC908890141F0010122F0CBFC6FF080
:10578000850008BDD0900300988F03007D70050050
:1057900008B50649064B0748C91AC908890141F0EE
:1057A000010122F0B7FC002008BD00BFD09003002B
:1057B000988F03007D70050008B50649064B074821
:1057C000C91AC908890141F0010122F0A3FC6FF058
:1057D000850008BDD0900300988F03007D70050000
:1057E000042908B50CD0074B07490848C91AC9084D
:1057F000890141F0010122F08DFC6FF0850008BDA8
:105800000020FCE7988F0300D09003007D70050016
:105810000023054AA1F80D30CB730423C1E900230E
:1058200001228A600B73704780002000F7B5B3F83F
:1058300008C0089E0546988884450DD23549364BE8
:105840003648C91AC908890141F0010122F062FCF9
:105850004FF0FF3003B0F0BDDF881B683C46444387
:1058600048BF0734E4109C4228BF1C4606B144B927
:105870002849294B2A48C91AC908890141F0010160
:10588000E4E7844508D92349234B2648C91AC908A7
:10589000890141F00101D9E712F0070308D01D4941
:1058A0001D4B2148C91AC908890141F00101CDE702
:1058B0008DF8013021238DF8023022238DF8053038
:1058C000D308C9B28DF80630D3198DF80310DB1058
:1058D00001440139013B4FF0200C8DF804108DF884
:1058E000073028698DF800C001230822694623F09B
:1058F000CCF9034640B10749074B0C48C91AC908FF
:10590000890141F00101A1E728692246314623F0CF
:10591000BCF99FE7D0900300988F030089700500C1
:10592000A5700500C5700500D6700500E97005007A
:1059300030B5056985B004463B4810F053FE6860F9
:1059400078B93A4B3A4A38493A48D21AD2089201C1
:1059500042F0010222F0EDFB6FF01505284605B07C
:1059600030BD4AF2A4632046ADF8043023F0B9F903
:1059700060B12E4B2E493048C91AC908890141F03F
:10598000010122F0C7FB6FF00405E7E72B4B186815
:105990009B880290ADF80C3020690123062202A9F1
:1059A00023F073F90028E4D1254B18689A889B7975
:1059B0000290ADF80C208DF80E30206901230722EB
:1059C00002A923F062F90028D3D14CF6A103ADF867
:1059D000083020690123022202A923F056F9002889
:1059E000C7D1184B20691A889B78ADF808208DF82C
:1059F0000A300322012302A923F047F90028B8D175
:105A000020690123022201A923F03FF90028B0D127
:105A10008021204623F056F905460028A9D12046CA
:105A200023F06CF99AE700BF01710500988F03001D
:105A3000D0900300077105002B7105004871050027
:105A4000F19103004F710500044A1368C91A21F04F
:105A50007F400344136011F08DBE00BF9C040320FF
:105A60002DE9F843860006F1804600F1500406F562
:105A70008836A400A4B204F180444FF48037D6F8ED
:105A80004035DFF86C8021F07F4504F5883487408D
:105A9000D8F80495A3EB090323F07F4329F07F4254
:105AA000012BC6F8402502D113202BF0D6FA09F1BC
:105AB0000202AB1A23F07F43B3F5000F88BF1546EF
:105AC000002323602368C8F8447325F07F43C6F899
:105AD0004035D8F80435994506D0EB1A023B23F03F
